:1000000012C02CC02BC02AC029C028C054C026C092
:1000100025C024C024C09CC021C020C01FC01EC059
:100020001DC01CC01BC011241FBECFE5D4E0DEBF25
:10003000CDBF10E0A0E6B0E0E8E3F8E002C0059034
:100040000D92A63EB107D9F711E0A6EEB0E001C0CF
:100050001D92A630B107E1F76ED0ECC3D1CF1F924D
:100060000F920FB60F9211248F939F93EF93FF93EC
:10007000E0910201F09103013196F0930301E093C6
:10008000020131978091FF009091000101979093B8
:1000900000018093FF00892B19F48DB180588DB930
:1000A00081818FB9FF91EF919F918F910F900FBE3A
:1000B0000F901F9018951F920F920FB60F92112458
:1000C0002F938F939F931DBC1CBC8091FB0090913C
:1000D000FC0001969093FC008093FB00885E9340A7
:1000E00041F485B391E0892785BB1092FC00109202
:1000F000FB008091FD008F5F8093FD00843631F41A
:1001000085B392E0892785BB1092FD008091FE00A7
:100110008F5F8093FE008A3031F485B394E08927A5
:1001200085BB1092FE009F918F912F910F900FBE73
:100130000F901F9018958FEF84BB87B38F6E87BB8E
:100140008FD082E790E092D080E88FBF78D0FFCF49
:100150001F920F920FB60F9211242F933F934F933C
:100160005F936F937F938F939F93AF93BF93EF931F
:10017000FF93DF93CF93CDB7DEB76297DEBFCDBFDE
:100180009CB1903209F445C0913218F49D30B9F514
:1001900005C09B3251F19D3291F52BC0DE011696C0
:1001A000E0E6F0E08DE001900D928150E1F7DE0194
:1001B0001196EDE6F0E085E001900D928150E1F7B7
:1001C00086EE90E05DD0882319F0CE01019602C042
:1001D000CE0106964BD084E1E6EEF0E0DF011D9201
:1001E0008A95E9F71092FA0014C08AB59BB50A9671
:1001F00003C08AB59BB50A979BBD8ABD0AC0809192
:10020000FA00E82FF0E0EA51FF4F90838F5F809370
:10021000FA006296DEBFCDBFCF91DF91FF91EF91E3
:10022000BF91AF919F918F917F916F915F914F910E
:100230003F912F910F900FBE0F901F9018958DB189
:1002400081658DB90895FC016F9A909303018093A5
:100250000201709300016093FF0080818FB90895BF
:1002600088E98AB910BC83E389B90895FC0104C008
:100270008CB95D9BFECF319680818823C9F70895A4
:10028000EF92FF921F93DF93CF93CDB7DEB7C756A0
:10029000D0400FB6F894DEBF0FBECDBF7C01DE01AB
:1002A0009896EFE7F0E089E001900D928150E1F738
:1002B000DE01D196E8E8F0E089E001900D928150EE
:1002C000E1F7DE015096E1E9F0E088E001900D925F
:1002D0008150E1F7DE011496E9E9F0E086E0019053
:1002E0000D928150E1F7DE011A96EFE9F0E086E029
:1002F00001900D928150E1F7DE015896E5EAF0E0B9
:1003000088E001900D928150E1F7DE019096EDEAD0
:10031000F0E088E001900D928150E1F7DE01DA967D
:10032000E5EBF0E08DE001900D928150E1F7DE0108
:100330001196E2ECF0E083E001900D928150E1F73C
:10034000DE01A95BBF4FE5ECF0E081E201900D9288
:100350008150E1F7C701BE01685D7F4F48E050E082
:10036000E1D1009711F010E003C0D5D0BED011E06C
:10037000C701BE016F5C7F4F48E050E0D3D10097CA
:1003800019F4C9D0BDD011E0C701BE01605F7F4F35
:1003900047E050E0C7D1009711F4BDD011E0C7018C
:1003A000BE016C5F7F4F45E050E0BCD1009761F526
:1003B000C701059660E070E04AE050E0B2D090E0FE
:1003C00001C09F5FF701E90FF11D81818823C9F703
:1003D0008081883659F428B381E090E002C0880F0C
:1003E000991F6A95E2F7282B28BB0DC08C3661F463
:1003F00028B381E090E002C0880F991F6A95E2F768
:100400008095822388BB11E0C701BE01665F7F4FE4
:1004100045E050E087D1009761F5C701059660E09F
:1004200070E04AE050E07DD090E001C09F5FF701AE
:10043000E90FF11D81818823C9F78081883659F43D
:1004400025B381E090E002C0880F991F6A95E2F71A
:10045000282B25BB0DC08C3659F425B381E090E0E4
:1004600002C0880F991F6A95E2F78095822385BBA9
:1004700011E0C701BE01685E7F4F47E050E052D1F6
:100480000097A9F4C701079660E070E040E150E0F2
:1004900048D06FB9779BFECFCE01CA96E7DE8FB109
:1004A0008CB95D9BFECFCE010196E0DE11E0C70165
:1004B000BE01605E7F4F47E050E034D1009739F4D1
:1004C000CE01895B9F4F60E270E0BDDE11E0812FBD
:1004D000C959DF4F0FB6F894DEBF0FBECDBFCF9125
:1004E000DF911F91FF90EF9008958EB582608EBDD1
:1004F00081E08BBD84EF8ABD89B7806189BF089593
:100500008EB582608EBD8FB581688FBD8FE090E023
:100510009BBD8ABD08951EBC1FBC19BE1BBC1ABC66
:100520000895A0E0B0E0E6E9F2E04EC1EC012B0155
:100530006A016115710519F0FB0191838083C11473
:10054000D10449F0C6010297839728F020E030E0FB
:1005500040E050E0D9C0A9908A2D90E0DBD0892BF3
:10056000D1F7FDE2AF1621F4A9903324339405C0EE
:100570008BE2A81609F4A9903324C114D10421F008
:10058000E0E1CE16D10411F5F0E3AF1669F48881ED
:10059000883711F0883541F4A980229682E0382A04
:1005A00020E1C22ED12C12C0C114D10479F4E0E3B1
:1005B000AE1659F199E9E92E99E9F92E99E9092F31
:1005C00099E1192F8AE0C82ED12C39C0FAE0CF1654
:1005D000D10491F080E1C816D10429F0E8E0CE16EC
:1005E000D104F9F415C0BFEFEB2EBFEFFB2EBFEF28
:1005F0000B2FBFE01B2F23C0A9E9EA2EA9E9FA2E91
:10060000A9E90A2FA9E11A2F1AC0F8E0CF2ED12CA0
:10061000EFEFEE2EEFEFFE2EEFEF0E2FEFE11E2F9E
:100620000EC09601442737FD4095542F6FEF7FEFA2
:100630008FEF9FEFA6D0C901DA017C018D0120E088
:1006400030E040E050E060E03601882477FC8094A0
:10065000982C70EDB72EBA0CF9E0FB1570F48A2DCA
:1006600081548A3118F499ECB92E06C08A2D81562E
:100670008A3140F589EAB82EBA0C8B2D90E08C15A2
:100680009D0504F56F3FE1F0E216F3060407150738
:10069000B0F0CA01B901A401930154D09B01AC018F
:1006A0008B2D90E0A0E0B0E0280F391F4A1F5B1FA0
:1006B000281739074A075B0710F061E001C06FEFA8
:1006C000A990C7CF4114510451F0662311F021972E
:1006D00003C031FE04C02297F201D183C08330FEF3
:1006E00007C050954095309521953F4F4F4F5F4F34
:1006F00067FF0AC082E290E09093050180930401B5
:100700002FEF3FEF4FEF5FEFB901CA01CDB7DEB773
:10071000E1E176C0911113C0803219F08950855003
:10072000D0F70895FB01DC0104C08D910190801980
:1007300021F441505040C8F7881B990B0895992720
:1007400088270895629FD001739FF001829FE00D7A
:10075000F11D649FE00DF11D929FF00D839FF00D40
:10076000749FF00D659FF00D9927729FB00DE11DEC
:10077000F91F639FB00DE11DF91FBD01CF011124C9
:100780000895A1E21A2EAA1BBB1BFD010DC0AA1FD2
:10079000BB1FEE1FFF1FA217B307E407F50720F0EA
:1007A000A21BB30BE40BF50B661F771F881F991F65
:1007B0001A9469F760957095809590959B01AC01AE
:1007C000BD01CF0108952F923F924F925F926F9299
:1007D0007F928F929F92AF92BF92CF92DF92EF92D1
:1007E000FF920F931F93CF93DF93CDB7DEB7CA1B52
:1007F000DB0B0FB6F894DEBF0FBECDBF09942A887D
:10080000398848885F846E847D848C849B84AA8424
:10081000B984C884DF80EE80FD800C811B81AA81B1
:10082000B981CE0FD11D0FB6F894DEBF0FBECDBF7C
:08083000ED010895F894FFCFDB
:100838004572726F7220646174610D0A004F4B0D2E
:100848000A00537461727465642E2E2E0D0A006FAF
:1008580073636D6F646531006F73636D6F646532C8
:10086800006F736373746F7000706F7274620070DE
:100878006F7274630073706962797465007370696C
:10088800627566660053504920616E737765723AE7
:1008980020000D0A0041206368616E676520697356
:1008A80020617320676F6F64206173206120726517
:0608B80073742E2E2E00C9
:040000050080007205
:00000001FF
