:1000000012C02CC02BC02AC029C028C042C226C0A2
:1000100025C024C07EC2F0C121C020C01FC01EC0A8
:100020001DC01CC01BC011241FBECFE5D4E0DEBF25
:10003000CDBF11E0A0E6B0E0EEE8F5E002C005902B
:100040000D92AA37B107D9F711E0AAE7B1E001C0D4
:100050001D92A43CB107E1F7AED197C2D1CF88E998
:100060008AB910BC83E389B90895582F282F392FF6
:10007000F90120E137E205C081918CB9C9010197EE
:10008000F1F78E2F851B8617B8F308958EB5826021
:100090008EBD81E08BBD84EF8ABD89B7806189BF49
:1000A0000895CF93DF93EC018881803709F06BC00E
:1000B00089818F3609F0E8C08A81823709F0E4C06F
:1000C0008B81843709F0E0C08D81823601F5898506
:1000D00090E08F7090703F81892B61F028B33F7062
:1000E00081E090E002C0880F991F3A95E2F7282B33
:1000F00028BB2FC028B33F7081E090E002C0880F7A
:10010000991F3A95E2F78095822388BB22C08336F7
:1001100009F0BAC0898590E08F7090703F81892B7B
:1001200061F025B33F7081E090E002C0880F991F15
:100130003A95E2F7282B25BB0CC025B33F7081E030
:1001400090E002C0880F991F3A95E2F780958223CC
:1001500085BB20E137E2C9010197F1F78FE48CB943
:10016000C9010197F1F78BE48CB9C9010197F1F747
:100170008DE08CB9C9010197F1F78AE08CB9C9010A
:100180000197F1F781C0843709F07EC089818936F3
:1001900009F07AC08A818D3609F076C08B81853668
:1001A00009F072C08C81823709F06EC08E818D3665
:1001B000F9F48F818F36E1F488858436C9F4898516
:1001C0008536B1F48A85813399F4E4EDF0E020E1DD
:1001D00037E281918CB9C9010197F1F781E0EF30E5
:1001E000F807B9F71EBC1FBC19BE1BBC1ABC4EDFFA
:1001F0008E818D3661F58F818F3609F045C08885F7
:10020000843609F041C08985853609F03DC08A856C
:100210008233D1F5E7E8F0E020E137E281918CB953
:10022000C9010197F1F780E0EF3BF807B9F71EBC71
:100230001FBC19BE1BBC1ABC8EB582608EBD8FB5AB
:1002400081688FBD8FE090E09BBD8ABD1DC0833764
:10025000D9F48F818437C1F488858F36A9F48985D4
:10026000803791F4E0ECF0E020E137E281918CB945
:10027000C9010197F1F780E0E33DF807B9F71EBC2B
:100280001FBC19BE1BBC1ABC8881833709F06FC024
:100290008981803709F06BC08A81893609F067C08F
:1002A0008C81833709F054C08E81803309F050C0AF
:1002B0008F81883709F04CC09885892F8156863008
:1002C00010F080E002C0892F875590539A3008F0D3
:1002D000982F2985822F8156863010F030E002C099
:1002E000322F3755822F80538A3008F0832F929512
:1002F000907F982B9FB9779BFECF6FB1E4E7F0E03A
:1003000020E137E281918CB9C9010197F1F780E0D2
:10031000E638F807B9F7E0E6F0E040E157E281910E
:100320008CB920E137E2CA010197F1F780E0E337A9
:10033000F807A9F76CB9C9010197F1F78DE08CB9FD
:10034000C9010197F1F78AE08CB9C9010197F1F76A
:100350008E81823661F48F81853749F488858636AF
:1003600031F41092BA016F9A809138018FB9DF9100
:10037000CF9108958EB582608EBD8FB581688FBD97
:100380008FE090E09BBD8ABD08951EBC1FBC19BEC6
:100390001BBC1ABC08958DB181658DB9089510926A
:1003A000BA016F9A809138018FB908958FB9779B00
:1003B000FECF8FB108958FEF84BB87B38F6E87BB5D
:1003C00088E98AB910BC83E389B9E1E1F1E020E171
:1003D00037E281918CB9C9010197F1F781E0E232EE
:1003E000F807B9F78DB181658DB980E88FBF10929C
:1003F000C1011092C201FFCF1F920F920FB60F9250
:1004000011242F933F934F935F936F937F938F9319
:100410009F93AF93BF93EF93FF938CB18093C301EE
:100420008091C3018B3269F08D3279F08D3099F46F
:1004300081E08093C1011092C2018AE791E031DE30
:1004400017C08AB59BB50A9603C08AB59BB50A97B3
:100450009BBD8ABD0DC0E091C2018091C301F0E057
:10046000E658FE4F80838091C2018F5F8093C20166
:10047000FF91EF91BF91AF919F918F917F916F917C
:100480005F914F913F912F910F900FBE0F901F9052
:1004900018951F920F920FB60F9211242F938F93DE
:1004A0009F931DBC1CBC8091BC019091BD01019625
:1004B0009093BD018093BC01885E934041F485B365
:1004C00091E0892785BB1092BD011092BC018091FB
:1004D000BF018F5F8093BF01843631F485B392E012
:1004E000892785BB1092BF018091BE018F5F8093E9
:1004F000BE018A3031F485B394E0892785BB109220
:10050000BE019F918F912F910F900FBE0F901F9062
:1005100018951F920F920FB60F9211242F933F93AD
:100520008F939F93EF93FF938091BA018F5F809396
:10053000BA01E091BA01F0E0E85CFE4F80818FB92A
:100540002091BA0130E08091780190E0019728175E
:10055000390781F4E3E2F1E020E137E281918CB9DF
:10056000C9010197F1F781E0E733F807B9F78DB1D9
:1005700080588DB9FF91EF919F918F913F912F916D
:0E0580000F900FBE0F901F901895F894FFCFAC
:10058E005350493A2064657669636520616E7377CE
:10059E00657220005350493A206279746520736564
:1005AE006E6465640D0A0050574D20737461727449
:1005BE0065642C2070696E205042312C2075736555
:1005CE00202B206F72202D20666F72206475747937
:1005DE0020726174696F2061646A7573740D0A000C
:1005EE0047656E657261746F722073746F7070659B
:1005FE00640D0A00332D6F75742067656E65726128
:10060E00746F7220737461727465642C2070696EDD
:10061E0073205043302D31487A2C205043312D31E8
:10062E0030487A2C205043322D313030487A0D0A22
:10063E000050726F6772616D2073746172746564BD
:10064E000D0A005350493A20627566666572207332
:10065E00656E6465640D0A00000103040506070853
:10066E00090A0B0C0D0D0E0F10111213141516177F
:10067E0018191A1B1C1D1E1F202122232425262774
:10068E0028292A2B2C2D2E2F303132333435363764
:0A069E0038393A3B3C3D3E3F400036
:00000001FF
